{
  "_format": "hh-sol-artifact-1",
  "contractName": "Utility",
  "sourceName": "contracts/utility.sol",
  "abi": [
    {
      "inputs": [],
      "stateMutability": "nonpayable",
      "type": "constructor"
    },
    {
      "anonymous": false,
      "inputs": [
        {
          "indexed": true,
          "internalType": "bytes20",
          "name": "credDefID",
          "type": "bytes20"
        },
        {
          "indexed": false,
          "internalType": "string",
          "name": "tag",
          "type": "string"
        }
      ],
      "name": "CredDefRegistered",
      "type": "event"
    },
    {
      "anonymous": false,
      "inputs": [
        {
          "indexed": true,
          "internalType": "address",
          "name": "account",
          "type": "address"
        },
        {
          "indexed": false,
          "internalType": "uint8",
          "name": "role",
          "type": "uint8"
        },
        {
          "indexed": false,
          "internalType": "uint8",
          "name": "version",
          "type": "uint8"
        },
        {
          "indexed": false,
          "internalType": "string",
          "name": "endpoint",
          "type": "string"
        }
      ],
      "name": "NYMRegistered",
      "type": "event"
    },
    {
      "anonymous": false,
      "inputs": [
        {
          "indexed": true,
          "internalType": "bytes20",
          "name": "schemaID",
          "type": "bytes20"
        },
        {
          "indexed": false,
          "internalType": "string",
          "name": "name",
          "type": "string"
        }
      ],
      "name": "SchemaRegistered",
      "type": "event"
    },
    {
      "inputs": [
        {
          "internalType": "bytes20",
          "name": "",
          "type": "bytes20"
        }
      ],
      "name": "CRED_DEFs",
      "outputs": [
        {
          "internalType": "address",
          "name": "cred_def_owner",
          "type": "address"
        },
        {
          "internalType": "address",
          "name": "trust_registry",
          "type": "address"
        },
        {
          "internalType": "address",
          "name": "revocation_registry",
          "type": "address"
        },
        {
          "internalType": "uint8",
          "name": "signature",
          "type": "uint8"
        },
        {
          "internalType": "bytes20",
          "name": "cred_def_id",
          "type": "bytes20"
        },
        {
          "internalType": "bytes20",
          "name": "schema_id",
          "type": "bytes20"
        },
        {
          "internalType": "string",
          "name": "tag",
          "type": "string"
        }
      ],
      "stateMutability": "view",
      "type": "function"
    },
    {
      "inputs": [
        {
          "internalType": "address",
          "name": "",
          "type": "address"
        }
      ],
      "name": "NYMs",
      "outputs": [
        {
          "internalType": "uint8",
          "name": "role",
          "type": "uint8"
        },
        {
          "internalType": "uint8",
          "name": "version",
          "type": "uint8"
        },
        {
          "internalType": "string",
          "name": "endpoint",
          "type": "string"
        }
      ],
      "stateMutability": "view",
      "type": "function"
    },
    {
      "inputs": [
        {
          "internalType": "bytes20",
          "name": "",
          "type": "bytes20"
        }
      ],
      "name": "SCHEMAs",
      "outputs": [
        {
          "internalType": "address",
          "name": "schema_owner",
          "type": "address"
        },
        {
          "internalType": "address",
          "name": "trust_registry",
          "type": "address"
        },
        {
          "internalType": "uint8",
          "name": "version",
          "type": "uint8"
        },
        {
          "internalType": "bytes20",
          "name": "schema_id",
          "type": "bytes20"
        },
        {
          "internalType": "string",
          "name": "name",
          "type": "string"
        }
      ],
      "stateMutability": "view",
      "type": "function"
    },
    {
      "inputs": [
        {
          "internalType": "bytes20",
          "name": "_cred_def_id",
          "type": "bytes20"
        }
      ],
      "name": "getCredDef",
      "outputs": [
        {
          "components": [
            {
              "internalType": "address",
              "name": "cred_def_owner",
              "type": "address"
            },
            {
              "internalType": "address",
              "name": "trust_registry",
              "type": "address"
            },
            {
              "internalType": "address",
              "name": "revocation_registry",
              "type": "address"
            },
            {
              "internalType": "uint8",
              "name": "signature",
              "type": "uint8"
            },
            {
              "internalType": "bytes20",
              "name": "cred_def_id",
              "type": "bytes20"
            },
            {
              "internalType": "bytes20",
              "name": "schema_id",
              "type": "bytes20"
            },
            {
              "internalType": "string",
              "name": "tag",
              "type": "string"
            }
          ],
          "internalType": "struct Utility.CRED_DEF",
          "name": "",
          "type": "tuple"
        }
      ],
      "stateMutability": "view",
      "type": "function"
    },
    {
      "inputs": [
        {
          "internalType": "address",
          "name": "_dest",
          "type": "address"
        }
      ],
      "name": "getNYM",
      "outputs": [
        {
          "components": [
            {
              "internalType": "uint8",
              "name": "role",
              "type": "uint8"
            },
            {
              "internalType": "uint8",
              "name": "version",
              "type": "uint8"
            },
            {
              "internalType": "string",
              "name": "endpoint",
              "type": "string"
            }
          ],
          "internalType": "struct Utility.NYM",
          "name": "",
          "type": "tuple"
        }
      ],
      "stateMutability": "view",
      "type": "function"
    },
    {
      "inputs": [
        {
          "internalType": "bytes20",
          "name": "_schema_id",
          "type": "bytes20"
        }
      ],
      "name": "getSCHEMA",
      "outputs": [
        {
          "components": [
            {
              "internalType": "address",
              "name": "schema_owner",
              "type": "address"
            },
            {
              "internalType": "address",
              "name": "trust_registry",
              "type": "address"
            },
            {
              "internalType": "uint8",
              "name": "version",
              "type": "uint8"
            },
            {
              "internalType": "bytes20",
              "name": "schema_id",
              "type": "bytes20"
            },
            {
              "internalType": "string",
              "name": "name",
              "type": "string"
            },
            {
              "internalType": "string[]",
              "name": "attributes",
              "type": "string[]"
            }
          ],
          "internalType": "struct Utility.SCHEMA",
          "name": "",
          "type": "tuple"
        }
      ],
      "stateMutability": "view",
      "type": "function"
    },
    {
      "inputs": [],
      "name": "owner",
      "outputs": [
        {
          "internalType": "address",
          "name": "",
          "type": "address"
        }
      ],
      "stateMutability": "view",
      "type": "function"
    },
    {
      "inputs": [
        {
          "internalType": "address",
          "name": "_cred_def_owner",
          "type": "address"
        },
        {
          "internalType": "address",
          "name": "_trust_registry",
          "type": "address"
        },
        {
          "internalType": "address",
          "name": "_revocation_registry",
          "type": "address"
        },
        {
          "internalType": "uint8",
          "name": "_signature",
          "type": "uint8"
        },
        {
          "internalType": "bytes20",
          "name": "_schema_id",
          "type": "bytes20"
        },
        {
          "internalType": "string",
          "name": "_tag",
          "type": "string"
        }
      ],
      "name": "registerCredDef",
      "outputs": [
        {
          "internalType": "bytes20",
          "name": "",
          "type": "bytes20"
        }
      ],
      "stateMutability": "nonpayable",
      "type": "function"
    },
    {
      "inputs": [
        {
          "internalType": "address",
          "name": "_dest",
          "type": "address"
        },
        {
          "internalType": "uint8",
          "name": "_role",
          "type": "uint8"
        },
        {
          "internalType": "uint8",
          "name": "_version",
          "type": "uint8"
        },
        {
          "internalType": "string",
          "name": "_endpoint",
          "type": "string"
        }
      ],
      "name": "registerNYM",
      "outputs": [],
      "stateMutability": "nonpayable",
      "type": "function"
    },
    {
      "inputs": [
        {
          "internalType": "address",
          "name": "_schema_owner",
          "type": "address"
        },
        {
          "internalType": "address",
          "name": "_trust_registry",
          "type": "address"
        },
        {
          "internalType": "uint8",
          "name": "_version",
          "type": "uint8"
        },
        {
          "internalType": "string",
          "name": "_name",
          "type": "string"
        },
        {
          "internalType": "string[]",
          "name": "_attributes",
          "type": "string[]"
        }
      ],
      "name": "registerSchema",
      "outputs": [
        {
          "internalType": "bytes20",
          "name": "",
          "type": "bytes20"
        }
      ],
      "stateMutability": "nonpayable",
      "type": "function"
    }
  ],
  "bytecode": "0x60806040523480156200001157600080fd5b50336000806101000a81548173ffffffffffffffffffffffffffffffffffffffff021916908373ffffffffffffffffffffffffffffffffffffffff1602179055506040518060600160405280600260ff168152602001600160ff1681526020016040518060400160405280600f81526020017f687474703a2f2f63616e6f6e2e63610000000000000000000000000000000000815250815250600160008060009054906101000a900473ffffffffffffffffffffffffffffffffffffffff1673ffffffffffffffffffffffffffffffffffffffff1673ffffffffffffffffffffffffffffffffffffffff16815260200190815260200160002060008201518160000160006101000a81548160ff021916908360ff16021790555060208201518160000160016101000a81548160ff021916908360ff1602179055506040820151816001019081620001639190620003e7565b50905050620004ce565b600081519050919050565b7f4e487b7100000000000000000000000000000000000000000000000000000000600052604160045260246000fd5b7f4e487b7100000000000000000000000000000000000000000000000000000000600052602260045260246000fd5b60006002820490506001821680620001ef57607f821691505b602082108103620002055762000204620001a7565b5b50919050565b60008190508160005260206000209050919050565b60006020601f8301049050919050565b600082821b905092915050565b6000600883026200026f7fffffffffffffffffffffffffffffffffffffffffffffffffffffffffffffffff8262000230565b6200027b868362000230565b95508019841693508086168417925050509392505050565b6000819050919050565b6000819050919050565b6000620002c8620002c2620002bc8462000293565b6200029d565b62000293565b9050919050565b6000819050919050565b620002e483620002a7565b620002fc620002f382620002cf565b8484546200023d565b825550505050565b600090565b6200031362000304565b62000320818484620002d9565b505050565b5b8181101562000348576200033c60008262000309565b60018101905062000326565b5050565b601f821115620003975762000361816200020b565b6200036c8462000220565b810160208510156200037c578190505b620003946200038b8562000220565b83018262000325565b50505b505050565b600082821c905092915050565b6000620003bc600019846008026200039c565b1980831691505092915050565b6000620003d78383620003a9565b9150826002028217905092915050565b620003f2826200016d565b67ffffffffffffffff8111156200040e576200040d62000178565b5b6200041a8254620001d6565b620004278282856200034c565b600060209050601f8311600181146200045f57600084156200044a578287015190505b620004568582620003c9565b865550620004c6565b601f1984166200046f866200020b565b60005b82811015620004995784890151825560018201915060208501945060208101905062000472565b86831015620004b95784890151620004b5601f891682620003a9565b8355505b6001600288020188555050505b505050505050565b612a0880620004de6000396000f3fe608060405234801561001057600080fd5b506004361061009e5760003560e01c8063c9a843c411610066578063c9a843c414610187578063d3acc873146101a3578063d5d06784146101d3578063e948738e14610203578063f8daa03b146102335761009e565b806371e1893d146100a357806376b40347146100d757806378575d88146101095780638da5cb5b1461013957806390ceea4114610157575b600080fd5b6100bd60048036038101906100b89190611971565b610269565b6040516100ce959493929190611a9a565b60405180910390f35b6100f160048036038101906100ec9190611b20565b610381565b60405161010093929190611b4d565b60405180910390f35b610123600480360381019061011e9190611b20565b61044d565b6040516101309190611c34565b60405180910390f35b610141610572565b60405161014e9190611c56565b60405180910390f35b610171600480360381019061016c9190611971565b610596565b60405161017e9190611d2b565b60405180910390f35b6101a1600480360381019061019c9190611eae565b6107fc565b005b6101bd60048036038101906101b89190611fe7565b610a39565b6040516101ca91906120a3565b60405180910390f35b6101ed60048036038101906101e891906120be565b610e10565b6040516101fa91906120a3565b60405180910390f35b61021d60048036038101906102189190611971565b6112eb565b60405161022a91906122bf565b60405180910390f35b61024d60048036038101906102489190611971565b61159f565b60405161026097969594939291906122e1565b60405180910390f35b60026020528060005260406000206000915090508060000160009054906101000a900473ffffffffffffffffffffffffffffffffffffffff16908060010160009054906101000a900473ffffffffffffffffffffffffffffffffffffffff16908060010160149054906101000a900460ff16908060020160009054906101000a900460601b908060030180546102fe90612386565b80601f016020809104026020016040519081016040528092919081815260200182805461032a90612386565b80156103775780601f1061034c57610100808354040283529160200191610377565b820191906000526020600020905b81548152906001019060200180831161035a57829003601f168201915b5050505050905085565b60016020528060005260406000206000915090508060000160009054906101000a900460ff16908060000160019054906101000a900460ff16908060010180546103ca90612386565b80601f01602080910402602001604051908101604052809291908181526020018280546103f690612386565b80156104435780601f1061041857610100808354040283529160200191610443565b820191906000526020600020905b81548152906001019060200180831161042657829003601f168201915b5050505050905083565b6104556116f0565b600160008373ffffffffffffffffffffffffffffffffffffffff1673ffffffffffffffffffffffffffffffffffffffff1681526020019081526020016000206040518060600160405290816000820160009054906101000a900460ff1660ff1660ff1681526020016000820160019054906101000a900460ff1660ff1660ff1681526020016001820180546104e990612386565b80601f016020809104026020016040519081016040528092919081815260200182805461051590612386565b80156105625780601f1061053757610100808354040283529160200191610562565b820191906000526020600020905b81548152906001019060200180831161054557829003601f168201915b5050505050815250509050919050565b60008054906101000a900473ffffffffffffffffffffffffffffffffffffffff1681565b61059e611717565b60036000836bffffffffffffffffffffffff19166bffffffffffffffffffffffff191681526020019081526020016000206040518060e00160405290816000820160009054906101000a900473ffffffffffffffffffffffffffffffffffffffff1673ffffffffffffffffffffffffffffffffffffffff1673ffffffffffffffffffffffffffffffffffffffff1681526020016001820160009054906101000a900473ffffffffffffffffffffffffffffffffffffffff1673ffffffffffffffffffffffffffffffffffffffff1673ffffffffffffffffffffffffffffffffffffffff1681526020016002820160009054906101000a900473ffffffffffffffffffffffffffffffffffffffff1673ffffffffffffffffffffffffffffffffffffffff1673ffffffffffffffffffffffffffffffffffffffff1681526020016002820160149054906101000a900460ff1660ff1660ff1681526020016003820160009054906101000a900460601b6bffffffffffffffffffffffff19166bffffffffffffffffffffffff191681526020016004820160009054906101000a900460601b6bffffffffffffffffffffffff19166bffffffffffffffffffffffff1916815260200160058201805461077390612386565b80601f016020809104026020016040519081016040528092919081815260200182805461079f90612386565b80156107ec5780601f106107c1576101008083540402835291602001916107ec565b820191906000526020600020905b8154815290600101906020018083116107cf57829003601f168201915b5050505050815250509050919050565b6002600160003373ffffffffffffffffffffffffffffffffffffffff1673ffffffffffffffffffffffffffffffffffffffff16815260200190815260200160002060000160009054906101000a900460ff1660ff1614610891576040517f08c379a000000000000000000000000000000000000000000000000000000000815260040161088890612403565b60405180910390fd5b6000600160008673ffffffffffffffffffffffffffffffffffffffff1673ffffffffffffffffffffffffffffffffffffffff16815260200190815260200160002060000160009054906101000a900460ff1660ff1614610926576040517f08c379a000000000000000000000000000000000000000000000000000000000815260040161091d9061246f565b60405180910390fd5b60405180606001604052808460ff1681526020018360ff16815260200182815250600160008673ffffffffffffffffffffffffffffffffffffffff1673ffffffffffffffffffffffffffffffffffffffff16815260200190815260200160002060008201518160000160006101000a81548160ff021916908360ff16021790555060208201518160000160016101000a81548160ff021916908360ff16021790555060408201518160010190816109dd9190612645565b509050508373ffffffffffffffffffffffffffffffffffffffff167ff0aed90fe34beba4b35573307617a10b7baf462877d5cc8ee5e7bf1965915677848484604051610a2b93929190611b4d565b60405180910390a250505050565b60006002600160003373ffffffffffffffffffffffffffffffffffffffff1673ffffffffffffffffffffffffffffffffffffffff16815260200190815260200160002060000160009054906101000a900460ff1660ff1614610ad0576040517f08c379a0000000000000000000000000000000000000000000000000000000008152600401610ac790612403565b60405180910390fd5b600060038686604051602001610ae7929190612744565b604051602081830303815290604052604051610b0391906127af565b602060405180830381855afa158015610b20573d6000803e3d6000fd5b5050506040515160601b9050600060026000836bffffffffffffffffffffffff19166bffffffffffffffffffffffff1916815260200190815260200160002060010160149054906101000a900460ff1660ff1614610bb3576040517f08c379a0000000000000000000000000000000000000000000000000000000008152600401610baa90612812565b60405180910390fd5b6040518060c001604052808a73ffffffffffffffffffffffffffffffffffffffff1681526020018973ffffffffffffffffffffffffffffffffffffffff1681526020018860ff168152602001826bffffffffffffffffffffffff1916815260200187878080601f016020809104026020016040519081016040528093929190818152602001838380828437600081840152601f19601f820116905080830192505050505050508152602001858590610c6b91906128e5565b81525060026000836bffffffffffffffffffffffff19166bffffffffffffffffffffffff1916815260200190815260200160002060008201518160000160006101000a81548173ffffffffffffffffffffffffffffffffffffffff021916908373ffffffffffffffffffffffffffffffffffffffff16021790555060208201518160010160006101000a81548173ffffffffffffffffffffffffffffffffffffffff021916908373ffffffffffffffffffffffffffffffffffffffff16021790555060408201518160010160146101000a81548160ff021916908360ff16021790555060608201518160020160006101000a81548173ffffffffffffffffffffffffffffffffffffffff021916908360601c02179055506080820151816003019081610d979190612645565b5060a0820151816004019080519060200190610db49291906117b7565b50905050806bffffffffffffffffffffffff19167fc5665e8f7d69bebec87f7be66bb5422eccc5331fb55c7b05fdcf8e5f034acecd8787604051610df9929190612744565b60405180910390a280915050979650505050505050565b60006002600160003373ffffffffffffffffffffffffffffffffffffffff1673ffffffffffffffffffffffffffffffffffffffff16815260200190815260200160002060000160009054906101000a900460ff1660ff1614610ea7576040517f08c379a0000000000000000000000000000000000000000000000000000000008152600401610e9e90612403565b60405180910390fd5b600060026000866bffffffffffffffffffffffff19166bffffffffffffffffffffffff1916815260200190815260200160002060010160149054906101000a900460ff1660ff1603610f2e576040517f08c379a0000000000000000000000000000000000000000000000000000000008152600401610f2590612946565b60405180910390fd5b600060038484604051602001610f45929190612744565b604051602081830303815290604052604051610f6191906127af565b602060405180830381855afa158015610f7e573d6000803e3d6000fd5b5050506040515160601b9050600060036000836bffffffffffffffffffffffff19166bffffffffffffffffffffffff1916815260200190815260200160002060020160149054906101000a900460ff1660ff1614611011576040517f08c379a0000000000000000000000000000000000000000000000000000000008152600401611008906129b2565b60405180910390fd5b6040518060e001604052808a73ffffffffffffffffffffffffffffffffffffffff1681526020018973ffffffffffffffffffffffffffffffffffffffff1681526020018873ffffffffffffffffffffffffffffffffffffffff1681526020018760ff168152602001826bffffffffffffffffffffffff19168152602001866bffffffffffffffffffffffff1916815260200185858080601f016020809104026020016040519081016040528093929190818152602001838380828437600081840152601f19601f8201169050808301925050505050505081525060036000836bffffffffffffffffffffffff19166bffffffffffffffffffffffff1916815260200190815260200160002060008201518160000160006101000a81548173ffffffffffffffffffffffffffffffffffffffff021916908373ffffffffffffffffffffffffffffffffffffffff16021790555060208201518160010160006101000a81548173ffffffffffffffffffffffffffffffffffffffff021916908373ffffffffffffffffffffffffffffffffffffffff16021790555060408201518160020160006101000a81548173ffffffffffffffffffffffffffffffffffffffff021916908373ffffffffffffffffffffffffffffffffffffffff16021790555060608201518160020160146101000a81548160ff021916908360ff16021790555060808201518160030160006101000a81548173ffffffffffffffffffffffffffffffffffffffff021916908360601c021790555060a08201518160040160006101000a81548173ffffffffffffffffffffffffffffffffffffffff021916908360601c021790555060c082015181600501908161128f9190612645565b50905050806bffffffffffffffffffffffff19167fed39927df386d20f767931ce831ab20b71b307a0d967f2c6d49bb4aa335b143c85856040516112d4929190612744565b60405180910390a280915050979650505050505050565b6112f3611810565b60026000836bffffffffffffffffffffffff19166bffffffffffffffffffffffff191681526020019081526020016000206040518060c00160405290816000820160009054906101000a900473ffffffffffffffffffffffffffffffffffffffff1673ffffffffffffffffffffffffffffffffffffffff1673ffffffffffffffffffffffffffffffffffffffff1681526020016001820160009054906101000a900473ffffffffffffffffffffffffffffffffffffffff1673ffffffffffffffffffffffffffffffffffffffff1673ffffffffffffffffffffffffffffffffffffffff1681526020016001820160149054906101000a900460ff1660ff1660ff1681526020016002820160009054906101000a900460601b6bffffffffffffffffffffffff19166bffffffffffffffffffffffff1916815260200160038201805461143d90612386565b80601f016020809104026020016040519081016040528092919081815260200182805461146990612386565b80156114b65780601f1061148b576101008083540402835291602001916114b6565b820191906000526020600020905b81548152906001019060200180831161149957829003601f168201915b5050505050815260200160048201805480602002602001604051908101604052809291908181526020016000905b8282101561159057838290600052602060002001805461150390612386565b80601f016020809104026020016040519081016040528092919081815260200182805461152f90612386565b801561157c5780601f106115515761010080835404028352916020019161157c565b820191906000526020600020905b81548152906001019060200180831161155f57829003601f168201915b5050505050815260200190600101906114e4565b50505050815250509050919050565b60036020528060005260406000206000915090508060000160009054906101000a900473ffffffffffffffffffffffffffffffffffffffff16908060010160009054906101000a900473ffffffffffffffffffffffffffffffffffffffff16908060020160009054906101000a900473ffffffffffffffffffffffffffffffffffffffff16908060020160149054906101000a900460ff16908060030160009054906101000a900460601b908060040160009054906101000a900460601b9080600501805461166d90612386565b80601f016020809104026020016040519081016040528092919081815260200182805461169990612386565b80156116e65780601f106116bb576101008083540402835291602001916116e6565b820191906000526020600020905b8154815290600101906020018083116116c957829003601f168201915b5050505050905087565b6040518060600160405280600060ff168152602001600060ff168152602001606081525090565b6040518060e00160405280600073ffffffffffffffffffffffffffffffffffffffff168152602001600073ffffffffffffffffffffffffffffffffffffffff168152602001600073ffffffffffffffffffffffffffffffffffffffff168152602001600060ff16815260200160006bffffffffffffffffffffffff1916815260200160006bffffffffffffffffffffffff19168152602001606081525090565b8280548282559060005260206000209081019282156117ff579160200282015b828111156117fe5782518290816117ee9190612645565b50916020019190600101906117d7565b5b50905061180c9190611884565b5090565b6040518060c00160405280600073ffffffffffffffffffffffffffffffffffffffff168152602001600073ffffffffffffffffffffffffffffffffffffffff168152602001600060ff16815260200160006bffffffffffffffffffffffff1916815260200160608152602001606081525090565b5b808211156118a4576000818161189b91906118a8565b50600101611885565b5090565b5080546118b490612386565b6000825580601f106118c657506118e5565b601f0160209004906000526020600020908101906118e491906118e8565b5b50565b5b808211156119015760008160009055506001016118e9565b5090565b6000604051905090565b600080fd5b600080fd5b60007fffffffffffffffffffffffffffffffffffffffff00000000000000000000000082169050919050565b61194e81611919565b811461195957600080fd5b50565b60008135905061196b81611945565b92915050565b6000602082840312156119875761198661190f565b5b60006119958482850161195c565b91505092915050565b600073ffffffffffffffffffffffffffffffffffffffff82169050919050565b60006119c98261199e565b9050919050565b6119d9816119be565b82525050565b600060ff82169050919050565b6119f5816119df565b82525050565b611a0481611919565b82525050565b600081519050919050565b600082825260208201905092915050565b60005b83811015611a44578082015181840152602081019050611a29565b60008484015250505050565b6000601f19601f8301169050919050565b6000611a6c82611a0a565b611a768185611a15565b9350611a86818560208601611a26565b611a8f81611a50565b840191505092915050565b600060a082019050611aaf60008301886119d0565b611abc60208301876119d0565b611ac960408301866119ec565b611ad660608301856119fb565b8181036080830152611ae88184611a61565b90509695505050505050565b611afd816119be565b8114611b0857600080fd5b50565b600081359050611b1a81611af4565b92915050565b600060208284031215611b3657611b3561190f565b5b6000611b4484828501611b0b565b91505092915050565b6000606082019050611b6260008301866119ec565b611b6f60208301856119ec565b8181036040830152611b818184611a61565b9050949350505050565b611b94816119df565b82525050565b600082825260208201905092915050565b6000611bb682611a0a565b611bc08185611b9a565b9350611bd0818560208601611a26565b611bd981611a50565b840191505092915050565b6000606083016000830151611bfc6000860182611b8b565b506020830151611c0f6020860182611b8b565b5060408301518482036040860152611c278282611bab565b9150508091505092915050565b60006020820190508181036000830152611c4e8184611be4565b905092915050565b6000602082019050611c6b60008301846119d0565b92915050565b611c7a816119be565b82525050565b611c8981611919565b82525050565b600060e083016000830151611ca76000860182611c71565b506020830151611cba6020860182611c71565b506040830151611ccd6040860182611c71565b506060830151611ce06060860182611b8b565b506080830151611cf36080860182611c80565b5060a0830151611d0660a0860182611c80565b5060c083015184820360c0860152611d1e8282611bab565b9150508091505092915050565b60006020820190508181036000830152611d458184611c8f565b905092915050565b611d56816119df565b8114611d6157600080fd5b50565b600081359050611d7381611d4d565b92915050565b600080fd5b600080fd5b7f4e487b7100000000000000000000000000000000000000000000000000000000600052604160045260246000fd5b611dbb82611a50565b810181811067ffffffffffffffff82111715611dda57611dd9611d83565b5b80604052505050565b6000611ded611905565b9050611df98282611db2565b919050565b600067ffffffffffffffff821115611e1957611e18611d83565b5b611e2282611a50565b9050602081019050919050565b82818337600083830152505050565b6000611e51611e4c84611dfe565b611de3565b905082815260208101848484011115611e6d57611e6c611d7e565b5b611e78848285611e2f565b509392505050565b600082601f830112611e9557611e94611d79565b5b8135611ea5848260208601611e3e565b91505092915050565b60008060008060808587031215611ec857611ec761190f565b5b6000611ed687828801611b0b565b9450506020611ee787828801611d64565b9350506040611ef887828801611d64565b925050606085013567ffffffffffffffff811115611f1957611f18611914565b5b611f2587828801611e80565b91505092959194509250565b600080fd5b600080fd5b60008083601f840112611f5157611f50611d79565b5b8235905067ffffffffffffffff811115611f6e57611f6d611f31565b5b602083019150836001820283011115611f8a57611f89611f36565b5b9250929050565b60008083601f840112611fa757611fa6611d79565b5b8235905067ffffffffffffffff811115611fc457611fc3611f31565b5b602083019150836020820283011115611fe057611fdf611f36565b5b9250929050565b600080600080600080600060a0888a0312156120065761200561190f565b5b60006120148a828b01611b0b565b97505060206120258a828b01611b0b565b96505060406120368a828b01611d64565b955050606088013567ffffffffffffffff81111561205757612056611914565b5b6120638a828b01611f3b565b9450945050608088013567ffffffffffffffff81111561208657612085611914565b5b6120928a828b01611f91565b925092505092959891949750929550565b60006020820190506120b860008301846119fb565b92915050565b600080600080600080600060c0888a0312156120dd576120dc61190f565b5b60006120eb8a828b01611b0b565b97505060206120fc8a828b01611b0b565b965050604061210d8a828b01611b0b565b955050606061211e8a828b01611d64565b945050608061212f8a828b0161195c565b93505060a088013567ffffffffffffffff8111156121505761214f611914565b5b61215c8a828b01611f3b565b925092505092959891949750929550565b600081519050919050565b600082825260208201905092915050565b6000819050602082019050919050565b60006121a58383611bab565b905092915050565b6000602082019050919050565b60006121c58261216d565b6121cf8185612178565b9350836020820285016121e185612189565b8060005b8581101561221d57848403895281516121fe8582612199565b9450612209836121ad565b925060208a019950506001810190506121e5565b50829750879550505050505092915050565b600060c0830160008301516122476000860182611c71565b50602083015161225a6020860182611c71565b50604083015161226d6040860182611b8b565b5060608301516122806060860182611c80565b50608083015184820360808601526122988282611bab565b91505060a083015184820360a08601526122b282826121ba565b9150508091505092915050565b600060208201905081810360008301526122d9818461222f565b905092915050565b600060e0820190506122f6600083018a6119d0565b61230360208301896119d0565b61231060408301886119d0565b61231d60608301876119ec565b61232a60808301866119fb565b61233760a08301856119fb565b81810360c08301526123498184611a61565b905098975050505050505050565b7f4e487b7100000000000000000000000000000000000000000000000000000000600052602260045260246000fd5b6000600282049050600182168061239e57607f821691505b6020821081036123b1576123b0612357565b5b50919050565b7f4e6f7420616e20656e646f727365720000000000000000000000000000000000600082015250565b60006123ed600f83611a15565b91506123f8826123b7565b602082019050919050565b6000602082019050818103600083015261241c816123e0565b9050919050565b7f4e594d20616c7265616479206578697374730000000000000000000000000000600082015250565b6000612459601283611a15565b915061246482612423565b602082019050919050565b600060208201905081810360008301526124888161244c565b9050919050565b60008190508160005260206000209050919050565b60006020601f8301049050919050565b600082821b905092915050565b6000600883026124f17fffffffffffffffffffffffffffffffffffffffffffffffffffffffffffffffff826124b4565b6124fb86836124b4565b95508019841693508086168417925050509392505050565b6000819050919050565b6000819050919050565b600061254261253d61253884612513565b61251d565b612513565b9050919050565b6000819050919050565b61255c83612527565b61257061256882612549565b8484546124c1565b825550505050565b600090565b612585612578565b612590818484612553565b505050565b5b818110156125b4576125a960008261257d565b600181019050612596565b5050565b601f8211156125f9576125ca8161248f565b6125d3846124a4565b810160208510156125e2578190505b6125f66125ee856124a4565b830182612595565b50505b505050565b600082821c905092915050565b600061261c600019846008026125fe565b1980831691505092915050565b6000612635838361260b565b9150826002028217905092915050565b61264e82611a0a565b67ffffffffffffffff81111561266757612666611d83565b5b6126718254612386565b61267c8282856125b8565b600060209050601f8311600181146126af576000841561269d578287015190505b6126a78582612629565b86555061270f565b601f1984166126bd8661248f565b60005b828110156126e5578489015182556001820191506020850194506020810190506126c0565b8683101561270257848901516126fe601f89168261260b565b8355505b6001600288020188555050505b505050505050565b60006127238385611a15565b9350612730838584611e2f565b61273983611a50565b840190509392505050565b6000602082019050818103600083015261275f818486612717565b90509392505050565b600081519050919050565b600081905092915050565b600061278982612768565b6127938185612773565b93506127a3818560208601611a26565b80840191505092915050565b60006127bb828461277e565b915081905092915050565b7f536368656d6120494420616c7265616479206578697374730000000000000000600082015250565b60006127fc601883611a15565b9150612807826127c6565b602082019050919050565b6000602082019050818103600083015261282b816127ef565b9050919050565b600067ffffffffffffffff82111561284d5761284c611d83565b5b602082029050602081019050919050565b600061287161286c84612832565b611de3565b9050808382526020820190506020840283018581111561289457612893611f36565b5b835b818110156128db57803567ffffffffffffffff8111156128b9576128b8611d79565b5b8086016128c68982611e80565b85526020850194505050602081019050612896565b5050509392505050565b60006128f236848461285e565b905092915050565b7f536368656d6120646f6573206e6f742065786973740000000000000000000000600082015250565b6000612930601583611a15565b915061293b826128fa565b602082019050919050565b6000602082019050818103600083015261295f81612923565b9050919050565b7f4372656444656620494420616c72656164792065786973747300000000000000600082015250565b600061299c601983611a15565b91506129a782612966565b602082019050919050565b600060208201905081810360008301526129cb8161298f565b905091905056fea26469706673582212200eac3d2b26a54847cff4513a6186ff26c5d9dd279abee85ae1fcdc82f61ac6dc64736f6c63430008130033",
  "linkReferences": {},
  "deployedLinkReferences": {}
}